:020000040800F2
:1000000000500020C5090008150A0008150A00085C
:10001000150A0008150A0008150A0008000000006B
:10002000000000000000000000000000150A0008A9
:10003000150A000800000000150A0008150A00084B
:10004000150A0008150A0008150A0008150A000814
:10005000150A0008150A0008150A0008150A000804
:10006000150A0008150A0008150A0008150A0008F4
:10007000150A0008150A0008150A0008150A0008E4
:10008000150A0008150A0008150A0008150A0008D4
:10009000150A0008150A0008150A0008150A0008C4
:1000A000150A0008150A0008150A0008150A0008B4
:1000B000150A00085D080008150A0008150A00085E
:1000C000150A0008150A0008150A0008150A000894
:1000D000150A0008150A0008150A0008150A000884
:1000E000150A0008150A000800000000150A00089B
:1000F000150A0008150A0008150A0008150A000864
:10010000150A0008150A0008150A0008150A000853
:10011000150A0008150A0008150A0008150A000843
:10012000150A0008150A0008150A0008150A000833
:1001300010B5054C237833B9044B13B10448AFF321
:1001400000800123237010BD70000020000000001B
:100150008C13000808B5034B1BB103490348AFF3E8
:10016000008008BD00000000740000208C1300080F
:1001700080B400AF104B1B681A680F4B1B6842F429
:1001800000321A600D4B1B6840F6A6621A600C4BD9
:100190001B681A680A4B1B6842F400521A60084B2D
:1001A0001B681A68064B1B6842F008021A6000BF01
:1001B000BD4680BC704700BF000000200C0000203E
:1001C0001000002080B483B000AF786000BF084BFF
:1001D0001B681B6803F08003002BF8D07A68054B7E
:1001E0001B68D2B21A6000BF0C37BD4680BC704796
:1001F000040000200800002080B582B000AF7860C5
:100200007868FFF7DFFF7B6818460837BD4680BD7A
:1002100080B400AF3A4B1B68394A43F48033136013
:1002200000BF374B1B6803F40033002BF9D0354B6C
:100230001B68344A23F007031360324B1B68314AB2
:1002400043F0020313602F4B1B682E4A43F0100348
:10025000136000BF2B4B1B6803F02003002BF9D069
:10026000274B5B68264A23F0F0035360244B5B68FE
:10027000234A23F4E0635360214B5B68204A43F434
:10028000806353601E4B5B681D4A23F460535360C8
:100290001B4B5B681A4A43F480335360184B5B680E
:1002A000174A23F470135360154B5B68144A43F4E8
:1002B000E0135360124B1B68114A43F080731360C4
:1002C00000BF0F4B1B6803F00073002BF9D00C4BE1
:1002D0005B680B4A23F003035360094B5B68084AD1
:1002E00043F00203536000BF054B5B6803F00C034F
:1002F000082BF9D100BF00BFBD4680BC704700BFCE
:10030000001002400020024080B485B000AF0346D8
:100310000A46FB711346BB71154B1B78DBB20133E8
:100320005A4203F0070302F0070258BF5342FB731F
:10033000104B1B78DBB2FA7B9A4213D00C4B1B7824
:10034000DBB219460C4AFB7902F81130084B1B78D6
:10035000DBB2094A5B001344BA795A70044AFB7B4A
:10036000137000E000BF1437BD4680BC704700BF6B
:10037000A8000020A90000209800002080B483B0CD
:1003800000AF0023FB710EE0FB790E4A0121D1542E
:10039000FB790D4A0121D154FB790C4A0021D1543B
:1003A000FB790133FB71FB79022BEDD9084B00225D
:1003B0001A70084B00221A7000BF0C37BD4680BC73
:1003C000704700BF8C0000209000002094000020A7
:1003D000A8000020A900002080B582B000AF002353
:1003E000FB7143E0254B9B68FA79254931F81220CF
:1003F0001340002B14BF01230023DBB2BB71FB7938
:10040000204AD35CBA799A4225D1FB791E4AD35C43
:10041000072B07D8FB791C4AD25C0132D1B21A4AA9
:10042000D15420E0FB79194AD35CBA799A421AD0A8
:10043000FB791649BA79CA54BB79002B05D1FB79EF
:1004400000211846FFF760FF0DE0FB7901211846F7
:10045000FFF75AFF07E0FB790B4A0021D154FB79E3
:100460000849BA79CA54FB790133FB71FB79022B35
:10047000B8D900BF00BF0837BD4680BD00080140A5
:10048000041400088C00002094000020900000203C
:1004900080B483B000AF7860134B1B78DAB2134B93
:1004A0001B78DBB29A4201D1002317E00F4B1B7877
:1004B000DBB279680E4A5B0013441B880B800B4B40
:1004C0001B78DBB201335A4203F0070302F0070244
:1004D00058BF5342DAB2054B1A70012318460C3745
:1004E000BD4680BC704700BFA8000020A9000020C6
:1004F0009800002080B400AF314B9B69304A43F034
:10050000040393612F4B1B682E4A23F00F031360E3
:100510002C4B1B682B4A43F004031360294B1B68C8
:10052000284A23F0F0031360264B1B68254A43F04A
:1005300040031360234B1B68224A23F4706313604B
:10054000204B1B681F4A43F4306313601D4B1B682C
:100550001C4A23F4700313601A4B1B68194A43F4B6
:1005600000031360174B1B68164A23F07063136077
:10057000144B1B68134A43F000631360114B1B6854
:10058000104A23F0704313600E4B1B680D4A43F072
:10059000004313600B4BDB680A4A43F02003D3602F
:1005A000084BDB68074A43F04003D360054BDB6828
:1005B000044A43F08003D36000BFBD4680BC70474F
:1005C000001002400008014080B483B000AF034631
:1005D000FB7197F90730002B0BDBFB7903F01F024F
:1005E000064997F907305B09012000FA02F241F849
:1005F000232000BF0C37BD4680BC704700E100E0FF
:1006000080B400AF334BDB69324A43F00103D3615E
:100610004FF0804300221A604FF0804300225A605E
:100620004FF0804300229A604FF080439B684FF068
:10063000804243F0030393604FF080439B694FF087
:1006400080421B0C1B0493614FF080439B694FF069
:10065000804243F0010393614FF080439B694FF068
:10066000804243F4807393614FF080439B694FF065
:10067000804243F0300393614FF080439B694FF019
:10068000804243F4405393614FF080431B6A4FF024
:10069000804243F0010313624FF080431B6A4FF026
:1006A000804243F0100313624FF080434FF6FF7215
:1006B000DA624FF0804300225A624FF080431B6899
:1006C0004FF0804243F00103136000BFBD4680BC81
:1006D000704700BF0010024080B500AF104BDB69CF
:1006E0000F4A43F00203D3610E4B41F61F429A6258
:1006F0000C4B0922DA620B4BDB680A4A43F0010318
:10070000D3601D20FFF760FF064B00225A62054BA5
:100710001B68044A43F00103136000BF80BD00BFA3
:10072000001002400004004080B582B000AFFFF727
:100730006FFDFFF7DFFEFFF71BFDFFF71FFEFFF763
:100740005FFFFFF7C9FF3D4800F03AFB3C4B1B68D9
:100750009B68184600F008FA3B461846FFF798FEDB
:100760000346002B2ED07B78002B2BD13B78032B1C
:1007700028D801A252F823F0890700089D07000835
:10078000B1070008C50700082E4800F019FB2C4BE4
:100790001B689B68184600F0E7F913E02A4800F050
:1007A0000FFB274B1B689B68184600F0DDF909E03A
:1007B000264800F005FB224B1B689B68184600F09A
:1007C000D3F900BF4FF080435B6AFB80FA88204B6F
:1007D0001B881BB29BB2D31A9BB2BB80B7F9043003
:1007E000012B12DD1B4800F0EBFA154B1B689B68D0
:1007F000184600F0B9F9164B1B881BB29BB20233A6
:100800009BB21AB2124B1A80A6E7B7F90430B3F1C3
:10081000FF3FA1DA104800F0D3FA094B1B689B6830
:10082000184600F0A1F90A4B1B881BB29BB2023B91
:100830009BB21AB2064B1A808EE700BFA4130008C1
:1008400020000020B8130008D0130008DC130008B3
:10085000AA000020EC130008F813000880B500AFD0
:10086000074B1B6903F00103002B07D0044B1B69E6
:10087000034A23F001031361FFF7AEFD00BF80BD03
:100880000004004080B586B000AFF860B9607A60BF
:1008900000237B610AE0AFF300800146BB685A1C6D
:1008A000BA60CAB21A707B6901337B617A697B686E
:1008B0009A42F0DB7B6818461837BD4680BD80B58C
:1008C00086B000AFF860B9607A6000237B6109E010
:1008D000BB685A1CBA601B781846FFF78DFC7B6911
:1008E00001337B617A697B689A42F1DB7B68184649
:1008F0001837BD4680BD80B483B000AF78604FF03C
:10090000FF3318460C37BD4680BC704780B483B0B7
:1009100000AF786039603B684FF400525A600023A2
:1009200018460C37BD4680BC704780B483B000AF1A
:100930007860012318460C37BD4680BC704780B4F0
:1009400085B000AFF860B9607A60002318461437AC
:10095000BD4680BC7047000080B586B000AF7860AF
:10096000144A154BD31A7B617B693B61134B1B689F
:10097000002B02D1114B124A1A60104B1A687B6887
:1009800013443A699A4207D200F048FB03460C220E
:100990001A604FF0FF3309E0084B1B68FB60074B00
:1009A0001A687B681344054A1360FB6818461837B9
:1009B000BD4680BD0050002000040000AC000020B7
:1009C000000200200D488546AFF300800C480D4919
:1009D0000D4A002302E0D458C4500433C4188C429A
:1009E000F9D30A4A0A4C002301E013600432A24200
:1009F000FBD300F019FBFFF797FEFEE70050002045
:100A00000000002070000020141400087000002076
:100A1000FC010020FEE70000B1F90C20F8B5160734
:100A200005460C4654D44B68002B02DC0B6C002BA3
:100A300048DDE66A002E45D0002312F480522F686C
:100A4000216A2B6030D0626DA389590705D5636890
:100A5000D21A636B0BB1236CD21A00232846E66AC4
:100A6000216AB047431CA38906D129681D292BD8C8
:100A7000284A0A41D60727D4002262602269D90495
:100A8000226004D5421C01D12B6803B96065616BFB
:100A90002F60B9B104F14403994202D0284600F016
:100AA000EBFA002363630DE001232846B0470246BA
:100AB000501CC9D12B68002BC6D01D2B01D0162B82
:100AC0001DD12F60002021E043F040031BB21AE04B
:100AD0000F69002FF6D0930718BF00230E6808BFD8
:100AE0004B69F61B0F608B60002EEBDD33463A46F8
:100AF0002846216AD4F828C0E047002807DCB4F96A
:100B00000C3043F040034FF0FF30A381F8BD0744A1
:100B1000361AE9E7FEFFBFDF38B50B6905460C461C
:100B200013B90025284638BD18B1036A0BB900F087
:100B3000BBF8B4F90C30002BF3D0626ED00704D4AC
:100B4000990502D4A06D00F094FA28462146FFF7DB
:100B500063FF636E0546DA07E4D4A3899B05E1D4FD
:100B6000A06D00F087FADDE7014620B9044A054987
:100B7000054800F0B1B8054B1868FFF7CDBF00BFBE
:100B800014000020190B0008240000202000002081
:100B9000002310B50446C0E90033C0E90433836084
:100BA00081814366C2818361194608225C3000F06E
:100BB000E7F90D4B246263620C4BA3620C4BE362BA
:100BC0000C4B23630C4B9C4206D003F16802944209
:100BD00002D0D0339C4205D104F15800BDE810404A
:100BE00000F046BA10BD00BFD10D0008F30D00089B
:100BF0002B0E00084F0E0008B0000020024A0349E7
:100C0000034800F069B800BF14000020190B000869
:100C10002400002041680C4B10B59942044601D0D5
:100C2000FFF77AFFA168094B994202D02046FFF7EF
:100C300073FFE168064B994204D02046BDE810409E
:100C4000FFF76ABF10BD00BFB000002018010020F0
:100C50008001002010B50B4B0B4C0C4A20461A604B
:100C600004210022FFF794FF04F16800012209210A
:100C7000FFF78EFF04F1D0000222BDE810401221E0
:100C8000FFF786BFE8010020B0000020FD0B000840
:100C9000014800F0EEB900BFF1010020014800F06A
:100CA000E9B900BFF101002010B50446FFF7F0FFDD
:100CB000236A1BB1BDE81040FFF7F0BF044B23626D
:100CC000044B1B68002BF5D1FFF7C4FFF2E700BF10
:100CD000150C0008E80100202DE9F8430746884676
:100CE00014460026D4E90195B9F1010905D5246817
:100CF000002CF7D13046BDE8F883AB89012B07D92A
:100D0000B5F90E30013303D029463846C0470643B3
:100D10006835E9E7036A70B505460E4684680BB985
:100D2000FFF7C2FF636EDB0705D4A389980502D4E1
:100D3000A06D00F09EF9A389190702D52369002B45
:100D400035D12146284600F0C5F880B34FF0FF3575
:100D5000636EDA0705D4A3899B0502D4A06D00F069
:100D600089F9284670BD002B04DAA2699A4217DC83
:100D70000A2915D023685A1C22601970A36816F836
:100D8000011F013BA3600029EDD1002B11DA22469F
:100D90000A21284600F05FF80130D7D00A25D7E7AE
:100DA0002246284600F057F80130E7D1CEE7013E51
:100DB000E4E723685A1C22600A221A70EEE700005A
:100DC000024B01461868FFF7A5BF00BF20000020B6
:100DD00010B50C46B1F90E1000F0FCF80028ABBFBE
:100DE000636DA3891B1823F48053ACBF6365A38193
:100DF00010BD2DE9F0411F468B890546DB050C46E9
:100E0000164605D502230022B1F90E1000F0D0F8E5
:100E1000A389324623F48053A38128463B46B4F984
:100E20000E10BDE8F04100F0E7B810B50C46B1F97E
:100E30000E1000F0BDF8431CA38915BF606523F4B4
:100E4000805343F48053A38118BFA38110BDB1F92F
:100E50000E1000F09DB8F8B50E461446054618B1C0
:100E6000036A0BB9FFF720FFA369A360A3891A07E0
:100E700001D5236943B92146284600F02BF818B163
:100E80004FF0FF373846F8BD23682269F6B2981A4A
:100E900063693746834205DC21462846FFF73CFE5E
:100EA0000028EDD1A368013BA36023685A1C22608F
:100EB0001E706269431C9A4204D0A389DB07E1D506
:100EC0000A2EDFD121462846FFF726FE0028D9D07A
:100ED000D6E7000038B5294B054618680C4618B10E
:100EE000036A0BB9FFF7E0FEB4F90C30190722D4FE
:100EF000DA0607D409222A6043F040034FF0FF309E
:100F0000A38133E0580712D5616B41B104F144036A
:100F1000994202D0284600F0AFF800236363A3890A
:100F200023F02403A3810023636023692360A38942
:100F300043F00803A38123694BB9A38903F4207309
:100F4000B3F5007F03D02146284600F0B0F9B4F98C
:100F50000C3013F001020AD00022A26062695242F2
:100F6000A261226942B913F08000C5D138BD99074A
:100F700058BF6269A260F4E70020F7E72000002074
:100F800003460244934200D1704703F8011BF9E77E
:100F900038B50023054D044608462B60FFF7ABFC2F
:100FA000431C02D12B6803B1236038BDEC01002043
:100FB00038B50446084611460022054D2A601A46F7
:100FC000FFF7BDFC431C02D12B6803B1236038BD81
:100FD000EC01002038B50446084611460022054DB4
:100FE0002A601A46FFF74EFC431C02D12B6803B15E
:100FF000236038BDEC01002038B504460846114690
:101000000022054D2A601A46FFF759FC431C02D105
:101010002B6803B1236038BDEC010020014B186838
:10102000704700BF2000002070B500260C4D0D4C0D
:10103000641BA410A64209D100F0A8F900260A4DAD
:101040000A4C641BA410A64205D170BD55F8043BA0
:1010500098470136EEE755F8043B98470136F2E72A
:101060000C1400080C1400080C14000810140008DC
:10107000704770477047000038B50546002940D0DA
:1010800051F8043C0C1F002BB8BFE41800F0DEF848
:101090001C4A136833B9636014602846BDE83840C1
:1010A00000F0DAB8A34208D9206821188B4201BFAA
:1010B00019685B6809182160EDE71A465B680BB197
:1010C000A342FAD911685018A0420BD120680144FC
:1010D000501883421160E0D118685B6808441060C2
:1010E0005360DAE702D90C232B60D6E72068211879
:1010F0008B4201BF19685B68091821606360546006
:10110000CBE738BDF801002070B50F4E0C463168B2
:10111000054611B900F02AF930602146284600F052
:1011200025F9431C03D14FF0FF34204670BDC41C89
:1011300024F00304A042F8D0211A284600F016F942
:101140000130F2D1EFE700BFF40100202DE9F843B0
:10115000CD1C25F0030508350C2D38BF0C25002DBE
:10116000064601DBA94204D90C2333600020BDE808
:10117000F883DFF8D48000F069F8D8F800301C4616
:1011800044BB29463046FFF7BFFF431C044658D1F5
:10119000D8F800402746002F43D1002C4BD02368BD
:1011A0003946304604EB030900F0E0F8814542D1AE
:1011B000216830466D1A2946FFF7A6FF01303AD064
:1011C00023682B442360D8F800305A6862BBC8F803
:1011D00000700FE02268521B20D40B2A17D9611926
:1011E000A342256018BF5960636808BFC8F80010A3
:1011F00062514B60304600F02FF804F10B00231DC4
:1012000020F00700C21A1CBF1B1AA350AFE7626888
:10121000A3420CBFC8F800205A60EBE7234664687D
:10122000AEE73C467F68B6E71A465B68A342FBD14F
:1012300000235360DEE70C233046336000F00CF8E7
:1012400094E70560D6E700BFF80100200148FFF7EA
:1012500010BF00BFF00100200148FFF70BBF00BF27
:10126000F001002070B50C46B1F90E1015460029AA
:101270001E4696B00CDAA389002113F0800F14BF2C
:1012800040234FF48063002031602B6016B070BDA6
:101290006A4600F049F80028EDDB019901F470413D
:1012A000A1F50053594259414FF48063EBE78B8914
:1012B000F7B59D0706460C4607D504F147032360A2
:1012C00023610123636103B0F0BD6A4601ABFFF700
:1012D000C9FF009F054639463046FFF737FF48B93A
:1012E000B4F90C309A05EED423F0030343F0020363
:1012F000A381E2E7A389C4E9040743F08003A38143
:10130000019B20605BB13046B4F90E1000F01EF86E
:1013100028B1A38923F0030343F00103A381A38928
:101320001D43A581CFE7000038B50023064D0446D4
:10133000084611462B60FFF7E9FA431C02D12B68DF
:1013400003B1236038BD00BFEC01002038B5002395
:10135000054D044608462B60FFF7E7FA431C02D10F
:101360002B6803B1236038BDEC01002038B50023A1
:10137000054D044608462B60FFF7EEFA431C02D1E8
:101380002B6803B1236038BDEC010020F8B500BF25
:10139000F8BC08BC9E467047F8B500BFF8BC08BC56
:0413A0009E467047AE
:1013A400446562756767696E672053746172742E51
:1013B4002E2E0000456E636F646520427574746F51
:1013C4006E20707265737365640000004355452098
:1013D4007072657373656400506C61792070726516
:1013E4007373656400000000456E636F646572206A
:1013F4002B310000456E636F646572202D3100004F
:08140400200040008000000000
:04140C00550100087E
:04141000310100089E
:101414001C100240004400400444004008440040C2
:101424000C4400400000000003000000B000002055
:101434002400002000000000B0000020180100205B
:1014440080010020000000000000000000000000F7
:101454000000000000000000000000000000000088
:101464000000000000000000000000000000000078
:101474000000000000000000000000000000000068
:04000005080009C521
:00000001FF
