:020000040800F2
:100000000050002021040008710400087104000859
:100010007104000871040008710400080000000069
:100020000000000000000000000000007104000853
:100030007104000800000000710400087104000849
:1000400071040008710400087104000871040008BC
:1000500071040008710400087104000871040008AC
:10006000710400087104000871040008710400089C
:10007000710400087104000871040008710400088C
:10008000710400087104000871040008710400087C
:10009000710400087104000871040008710400086C
:1000A000710400087104000871040008710400085C
:1000B0005903000871040008710400087104000865
:1000C000710400087104000871040008710400083C
:1000D000710400087104000871040008710400082C
:1000E0007104000871040008000000007104000899
:1000F000710400087104000871040008710400080C
:1001000071040008710400087104000871040008FB
:1001100071040008710400087104000871040008EB
:1001200071040008710400087104000871040008DB
:1001300010B5054C237833B9044B13B10448AFF321
:1001400000800123237010BD040000200000000087
:10015000BC04000808B5034B1BB103490348AFF3C7
:10016000008008BD0000000008000020BC0400085A
:1001700080B483B000AF0346FB7197F90730002BC2
:100180000BDBFB7903F01F02064997F907305B0987
:10019000012000FA02F241F8232000BF0C37BD46CF
:1001A00080BC704700E100E080B400AF3A4B1B68B0
:1001B000394A43F48033136000BF374B1B6803F4A4
:1001C0000033002BF9D0354B1B68344A23F007036A
:1001D0001360324B1B68314A43F0020313602F4B0C
:1001E0001B682E4A43F01003136000BF2B4B1B68A3
:1001F00003F02003002BF9D0274B5B68264A23F03D
:10020000F0035360244B5B68234A23F4E06353609C
:10021000214B5B68204A43F4806353601E4B5B684C
:100220001D4A23F4605353601B4B5B681A4A43F426
:1002300080335360184B5B68174A23F47013536084
:10024000154B5B68144A43F4E0135360124B1B6870
:10025000114A43F08073136000BF0F4B1B6803F01B
:100260000073002BF9D00C4B5B680B4A23F003039F
:100270005360094B5B68084A43F00203536000BFB8
:10028000054B5B6803F00C03082BF9D100BF00BFDE
:10029000BD4680BC704700BF0010024000200240F5
:1002A00080B400AF134B9B69124A43F0140393616F
:1002B000114B1B68104A23F00F0313600E4B1B6891
:1002C0000D4A43F0080313600B4BDB680A4A43F006
:1002D0000103D360094B5B68084A23F47003536041
:1002E000064B5B68054A43F44013536000BFBD46AC
:1002F00080BC70470010024000080140001001401F
:1003000080B500AF134BDB69124A43F00103D361A0
:100310004FF0804341F61F429A624FF0804309221A
:10032000DA624FF08043DB684FF0804243F0010314
:10033000D3601C20FFF71CFF4FF0804300225A625D
:100340004FF080431B684FF0804243F0010313607D
:1003500000BF80BD0010024080B483B000AF4FF0FA
:1003600080431B6903F00103002B3FD04FF0804313
:100370001B694FF0804223F0010313611E4B9B6801
:1003800003F00103002B14BF01230023DBB2FB7138
:100390001A4B1B78DBB2FA799A4221D1184B1B78A1
:1003A000DBB2132B07D8164B1B78DBB20133DAB262
:1003B000134B1A701AE0134B1B78DBB2FA799A428E
:1003C00014D0104AFB7913700E4B1B78DBB2002B54
:1003D0000CD10D4BDB680C4A83F40053D36005E06D
:1003E000074B00221A70054AFB79137000BF0C37C7
:1003F000BD4680BC704700BF0008014000000020DF
:1004000021000020200000200010014080B500AF36
:10041000FFF7CAFEFFF744FFFFF772FF00BFFDE7DB
:100420000D488546AFF300800C480D490D4A002366
:1004300002E0D458C4500433C4188C42F9D30A4A99
:100440000A4C002301E013600432A242FBD300F007
:1004500011F8FFF7DBFFFEE700500020000000204E
:1004600004000020DC040008040000202400002018
:10047000FEE7000070B500260C4D0D4C641BA41067
:10048000A64209D100F01AF800260A4D0A4C641B56
:10049000A410A64205D170BD55F8043B984701361B
:1004A000EEE755F8043B98470136F2E7D40400081C
:1004B000D4040008D4040008D8040008F8B500BF2C
:1004C000F8BC08BC9E467047F8B500BFF8BC08BC35
:0404D0009E4670478D
:0404D40055010008C6
:0404D80031010008E6
:0404DC00010000001B
:0400000508000421CA
:00000001FF
