:020000040800F2
:100000000050002015060008650600086506000877
:100010006506000865060008650600080000000087
:10002000000000000000000000000000650600085D
:100030006506000800000000650600086506000867
:1000400065060008650600086506000865060008E4
:1000500065060008650600086506000865060008D4
:1000600065060008650600086506000865060008C4
:1000700065060008650600086506000865060008B4
:1000800065060008650600086506000865060008A4
:100090006506000865060008650600086506000894
:1000A0006506000865060008650600086506000884
:1000B0006506000865060008650600086506000874
:1000C0006506000865060008650600086506000864
:1000D0006506000865060008650600086506000854
:1000E00065060008650600080000000065060008B7
:1000F0006506000865060008650600086506000834
:100100006506000865060008650600086506000823
:100110006506000865060008650600086506000813
:100120006506000865060008650600086506000803
:1001300010B5054C237833B9044B13B10448AFF321
:1001400000800123237010BD780000200000000013
:100150000415000808B5034B1BB103490348AFF36E
:10016000008008BD000000007C000020041500088D
:1001700080B400AF1C4B1B681A681B4B1B6842F015
:1001800004021A60194B1B681A68184B1B6842F46A
:1001900000321A60164B1B681A68154B1B6822F454
:1001A00070621A60124B1B681A68114B1B6842F48C
:1001B00030621A600F4B1B6840F6A6621A600E4B45
:1001C0001B681A680C4B1B6842F400521A600A4BF9
:1001D0001B681A68084B1B6842F008021A6000BFCF
:1001E000BD4680BC704700BF000000200400002016
:1001F00008000020140000201800002080B483B004
:1002000000AF786000BF084B1B681B6803F08003D9
:10021000002BF8D07A68054B1B68D2B21A6000BF79
:100220000C37BD4680BC70470C0000201000002039
:1002300080B582B000AF78607868FFF7DFFF7B6839
:1002400018460837BD4680BD80B483B000AF444B2C
:100250005B68434A23F440435360414B5B68404A28
:1002600043F4004353603E4B9B693D4A43F0040313
:1002700093613C4B1B683B4A23F470031360384B7B
:100280009B69374A43F400739361374B00225A60ED
:10029000354B00229A60344B1B69334A23F4603398
:1002A0001361314B1B69304A43F4203313612E4BE9
:1002B000DB6A2D4A23F47003D3622B4B5B6B2A4A13
:1002C00023F01F035363284B5B6B274A43F005035E
:1002D0005363254B9B68244A43F00103936000233A
:1002E0007B6002E07B6801337B607B68B3F57A7FDB
:1002F000F8DB1D4B9B681C4A43F00803936000BF6A
:10030000194B9B6803F00803002BF9D1164B9B682F
:10031000154A43F00403936000BF134B9B6803F03E
:100320000403002BF9D1104B9B680F4A43F4602360
:1003300093600D4B9B680C4A43F4801393600A4B07
:100340009B68094A43F002039360074B9B68064A87
:1003500043F48003936000BF0C37BD4680BC7047F8
:1003600000100240000801400024014080B582B026
:1003700000AF00F033F8FFF7FBFEFFF765FF00BFAB
:10038000124B1B6803F00203002BF9D00F4BDB6C00
:10039000FB800E4B1B680D4A23F002031360FB88A1
:1003A00019460B4800F0DEFA0A4B1B689B6818469A
:1003B00000F002FA00233B6002E03B6801333B603F
:1003C0003B68054A9342F8D9D9E700BF00240140B1
:1003D0001C150008280000209F86010080B400AF93
:1003E0003A4B1B68394A43F48033136000BF374BE4
:1003F0001B6803F40033002BF9D0354B1B68344ADB
:1004000023F007031360324B1B68314A43F00203A9
:1004100013602F4B1B682E4A43F01003136000BF7C
:100420002B4B1B6803F02003002BF9D0274B5B6894
:10043000264A23F0F0035360244B5B68234A23F4DD
:10044000E0635360214B5B68204A43F48063536050
:100450001E4B5B681D4A23F4605353601B4B5B6863
:100460001A4A43F480335360184B5B68174A23F4ED
:1004700070135360154B5B68144A43F4E0135360E8
:10048000124B1B68114A43F08073136000BF0F4B7F
:100490001B6803F00073002BF9D00C4B5B680B4A10
:1004A00023F003035360094B5B68084A43F00203DF
:1004B000536000BF054B5B6803F00C03082BF9D1B8
:1004C00000BF00BFBD4680BC704700BF00100240A7
:1004D0000020024080B586B000AFF860B9607A6055
:1004E00000237B610AE0AFF300800146BB685A1C21
:1004F000BA60CAB21A707B6901337B617A697B6822
:100500009A42F0DB7B6818461837BD4680BD80B53F
:1005100086B000AFF860B9607A6000237B6109E0C3
:10052000BB685A1CBA601B781846FFF781FE7B69CE
:1005300001337B617A697B689A42F1DB7B681846FC
:100540001837BD4680BD80B483B000AF78604FF0EF
:10055000FF3318460C37BD4680BC704780B483B06B
:1005600000AF786039603B684FF400525A60002356
:1005700018460C37BD4680BC704780B483B000AFCE
:100580007860012318460C37BD4680BC704780B4A4
:1005900085B000AFF860B9607A6000231846143760
:1005A000BD4680BC7047000080B586B000AF786063
:1005B000144A154BD31A7B617B693B61134B1B6853
:1005C000002B02D1114B124A1A60104B1A687B683B
:1005D00013443A699A4207D200F068FA03460C22A3
:1005E0001A604FF0FF3309E0084B1B68FB60074BB4
:1005F0001A687B681344054A1360FB68184618376D
:10060000BD4680BD00500020000400009400002082
:10061000E80100200D488546AFF300800C480D49E5
:100620000D4A002302E0D458C4500433C4188C424D
:10063000F9D30A4A0A4C002301E013600432A242B3
:10064000FBD300F039FAFFF791FEFEE700500020DF
:1006500000000020780000206815000878000020C5
:10066000E4010020FEE70000B1F90C20F8B5160700
:1006700005460C4654D44B68002B02DC0B6C002B57
:1006800048DDE66A002E45D0002312F480522F6820
:10069000216A2B6030D0626DA389590705D5636844
:1006A000D21A636B0BB1236CD21A00232846E66A78
:1006B000216AB047431CA38906D129681D292BD87C
:1006C000284A0A41D60727D4002262602269D90449
:1006D000226004D5421C01D12B6803B96065616BAF
:1006E0002F60B9B104F14403994202D0284600F0CA
:1006F0000BFA002363630DE001232846B04702464E
:10070000501CC9D12B68002BC6D01D2B01D0162B35
:100710001DD12F60002021E043F040031BB21AE0FE
:100720000F69002FF6D0930718BF00230E6808BF8B
:100730004B69F61B0F608B60002EEBDD33463A46AB
:100740002846216AD4F828C0E047002807DCB4F91D
:100750000C3043F040034FF0FF30A381F8BD074455
:10076000361AE9E7FEFFBFDF38B50B6905460C46D0
:1007700013B90025284638BD18B1036A0BB900F03B
:10078000BBF8B4F90C30002BF3D0626ED00704D460
:10079000990502D4A06D00F0B4F928462146FFF770
:1007A00063FF636E0546DA07E4D4A3899B05E1D4B1
:1007B000A06D00F0A7F9DDE7014620B9044A05491C
:1007C000054800F0B1B8054B1868FFF7CDBF00BF72
:1007D0001C000020690700082C00002028000020D1
:1007E000002310B50446C0E90033C0E90433836038
:1007F00081814366C2818361194608225C3000F022
:1008000006F90D4B246263620C4BA3620C4BE3624E
:100810000C4B23630C4B9C4206D003F168029442BC
:1008200002D0D0339C4205D104F15800BDE81040FD
:1008300000F066B910BD00BF89090008AB090008C7
:10084000E3090008070A000898000020024A03494B
:10085000034800F069B800BF1C00002069070008C9
:100860002C00002041680C4B10B59942044601D081
:10087000FFF77AFFA168094B994202D02046FFF7A3
:1008800073FFE168064B994204D02046BDE8104052
:10089000FFF76ABF10BD00BF9800002000010020D4
:1008A0006801002010B50B4B0B4C0C4A20461A6017
:1008B00004210022FFF794FF04F1680001220921BE
:1008C000FFF78EFF04F1D0000222BDE81040122194
:1008D000FFF786BFD0010020980000204D080008D7
:1008E000014800F00EB900BFD9010020014800F016
:1008F00009B900BFD901002010B50446FFF7F0FF89
:10090000236A1BB1BDE81040FFF7F0BF044B236220
:10091000044B1B68002BF5D1FFF7C4FFF2E700BFC3
:1009200065080008D00100202DE9F84307468846F5
:1009300014460026D4E90195B9F1010905D52468CA
:10094000002CF7D13046BDE8F883AB89012B07D9DD
:10095000B5F90E30013303D029463846C047064367
:100960006835E9E70FB407B5064904AB086853F8E2
:10097000042B8168019300F0E5F903B05DF804EB06
:1009800004B070472800002010B50C46B1F90E10D5
:1009900000F068F80028ABBF636DA3891B1823F42F
:1009A0008053ACBF6365A38110BD2DE9F0411F46A4
:1009B0008B890546DB050C46164605D50223002229
:1009C000B1F90E1000F03CF8A389324623F48053AD
:1009D000A38128463B46B4F90E10BDE8F04100F073
:1009E00053B810B50C46B1F90E1000F029F8431CAD
:1009F000A38915BF606523F4805343F48053A3811A
:100A000018BFA38110BDB1F90E1000F009B803465C
:100A10000244934200D1704703F8011BF9E700003C
:100A200038B50023054D044608462B60FFF78BFDC3
:100A3000431C02D12B6803B1236038BDD4010020D0
:100A400038B50446084611460022054D2A601A466C
:100A5000FFF79DFD431C02D12B6803B1236038BD15
:100A6000D401002038B50446084611460022054D41
:100A70002A601A46FFF72EFD431C02D12B6803B1F2
:100A8000236038BDD401002038B50446084611461D
:100A90000022054D2A601A46FFF739FD431C02D19A
:100AA0002B6803B1236038BDD4010020014B1868C6
:100AB000704700BF2800002070B500260C4D0D4C7B
:100AC000641BA410A64209D100F01CFD00260A4DAB
:100AD0000A4C641BA410A64205D170BD55F8043B16
:100AE00098470136EEE755F8043B98470136F2E7A0
:100AF00060150008601500086015000864150008FE
:100B0000704770477047000038B50546002940D04F
:100B100051F8043C0C1F002BB8BFE41800F0DEF8BD
:100B20001C4A136833B9636014602846BDE8384036
:100B300000F0DAB8A34208D9206821188B4201BF1F
:100B400019685B6809182160EDE71A465B680BB10C
:100B5000A342FAD911685018A0420BD12068014471
:100B6000501883421160E0D118685B680844106037
:100B70005360DAE702D90C232B60D6E720682118EE
:100B80008B4201BF19685B6809182160636054607B
:100B9000CBE738BDE001002070B50F4E0C46316840
:100BA000054611B900F00CFC30602146284600F0E3
:100BB00007FC431C03D14FF0FF34204670BDC41C1A
:100BC00024F00304A042F8D0211A284600F0F8FBD4
:100BD0000130F2D1EFE700BFDC0100202DE9F8433E
:100BE000CD1C25F0030508350C2D38BF0C25002D34
:100BF000064601DBA94204D90C2333600020BDE87E
:100C0000F883DFF8D48000F069F8D8F800301C468B
:100C100044BB29463046FFF7BFFF431C044658D16A
:100C2000D8F800402746002F43D1002C4BD0236832
:100C30003946304604EB030900F0C2FB814542D13E
:100C4000216830466D1A2946FFF7A6FF01303AD0D9
:100C500023682B442360D8F800305A6862BBC8F878
:100C600000700FE02268521B20D40B2A17D961199B
:100C7000A342256018BF5960636808BFC8F8001018
:100C800062514B60304600F02FF804F10B00231D39
:100C900020F00700C21A1CBF1B1AA350AFE76268FE
:100CA000A3420CBFC8F800205A60EBE723466468F3
:100CB000AEE73C467F68B6E71A465B68A342FBD1C5
:100CC00000235360DEE70C233046336000F00CF85D
:100CD00094E70560D6E700BFE00100200148FFF778
:100CE00010BF00BFD80100200148FFF70BBF00BFB5
:100CF000D8010020936810B4013B002B936007DA01
:100D00009469A34201DB0A2902D110BC00F0C4BAE5
:100D10001368581C10601970084610BC7047F8B56D
:100D200006460F461446D518AC4201D1002007E014
:100D30003A46304614F8011BFFF7DCFF431CF3D1A1
:100D4000F8BD00002DE9F04F0D46144698460646C2
:100D50009DB018B1036A0BB9FFF7CEFD6B6ED907D2
:100D600005D4AB899A0502D4A86DFFF7CAFEAB89FA
:100D70001B0701D52B699BB92946304600F0CAFAFA
:100D800070B16B6EDC0704D54FF0FF301DB0BDE8CD
:100D9000F08FAB899805F7D4A86DFFF7B3FEF3E7A2
:100DA0000023099320238DF8293030234FF00109C7
:100DB000CDF80C80DFF8A8818DF82A3023469A46BA
:100DC00013F8012B0AB1252AF9D1BAEB040B0BD089
:100DD0005B46224629463046FFF7A1FF013000F06E
:100DE000A780099A5A4409929AF80030002B00F023
:100DF0009F8000234FF0FF32CDE905230AF1010A5D
:100E0000049307938DF853301A935446052214F82F
:100E1000011B534800F0E4FA049AD8B9D10644BF44
:100E200020238DF85330130744BF2B238DF8533004
:100E30009AF800302A2B15D0544600204FF00A0CA7
:100E4000079A214611F8013B303B092B4BD9B0B131
:100E5000079214E0A0EB080309FA03F31343A24638
:100E60000493D2E7039B191D1B680391002BBBBFA2
:100E70005B4242F0020207930793B8BF04922378C3
:100E80002E2B0AD163782A2B32D1039B02341A1DF0
:100E90001B68039243EAE3730593DFF8C8A00322BB
:100EA0005046217800F09CFA38B14022049BA0EB18
:100EB0000A00824013430134049314F8011B0622F4
:100EC00029488DF8281000F08BFA00283FD0274BD6
:100ED0001BBB039B073323F0070308330393099BD2
:100EE0003B4409936AE70C4601200CFB0232A8E759
:100EF00000234FF00A0C194601340593204610F8E0
:100F0000012B303A092A03D9002BC6D00591C4E73A
:100F1000044601230CFB0121F0E703AB00932A46B2
:100F20003046134B04A9AFF300800746781CD6D196
:100F30006B6ED90705D4AB899A0502D4A86DFFF76B
:100F4000E1FDAB895B063FF51FAF09981EE703ABD8
:100F500000932A463046064B04A900F07DF8E4E7EA
:100F60002B15000831150008351500080000000099
:100F70001F0D00082DE9F047164698468A680B6950
:100F800007469342B8BF1346336091F843200C469E
:100F9000DDF820900AB1013333602368990642BF1F
:100FA000336802333360256815F0060506D104F175
:100FB000190AE36832689B1AAB422BDC94F8433081
:100FC0002268003B18BF0123920630D441463846C0
:100FD00004F14302C847013023D02368226903F09B
:100FE0000603042B14BF002533684FF0000608BF2A
:100FF000E56804F11A0408BFED1A54F8123C08BF62
:1010000025EAE5759342C4BF9B1AED18B5421AD183
:10101000002008E00123524641463846C8470130C7
:1010200003D14FF0FF30BDE8F0870135C1E7302034
:10103000E11881F843005A1C94F845102244023309
:1010400082F84310C2E70123224641463846C8478A
:101050000130E6D00136D9E72DE9FF470F7E9146F2
:10106000782F80460C469A460C9E01F1430207D821
:10107000622F0AD8002F00F0D380582F00F0BA80DA
:1010800004F1420684F842703AE0A7F16303152B9D
:10109000F6D801A151F823F0F1100008051100085D
:1010A00081100008811000088110000881100008DC
:1010B0000511000881100008811000088110000847
:1010C00081100008071200082F110008C111000844
:1010D0008110000881100008291200088110000802
:1010E0002F1100088110000881100008C9110008A4
:1010F00033681A1D1B68326004F1420684F84230DE
:1011000001239EE033682068191D3160060601D571
:101110001D6803E04506FBD5B3F90050002D03DA46
:101120002D236D4284F843300A23594811E0216889
:101130003368080653F8045B02D4490648BFADB2D1
:101140006F2F336014BF0A2308235148002184F80D
:1011500043106668002EA8BF2168A660A4BF21F0D6
:10116000040121600DB9002E4BD01646B5FBF3F1FA
:1011700003FB1157C75D06F8017D2F46BB420D46A4
:10118000F4D9082B0BD12368DF0708D523696168E0
:101190009942DEBF302306F8013C06F1FF36921B70
:1011A00022614B4621464046CDF800A003AAFFF736
:1011B000E1FE01304AD14FF0FF3004B0BDE8F087C6
:1011C000236843F0200323607827324884F8457071
:1011D000236831681F0651F8045B02D45F0648BFDC
:1011E000ADB23160D90744BF43F0200323601DB185
:1011F0001023ABE72648E9E7236823F020032360A8
:10120000F6E71646BDE733682568181D616930604A
:101210002E061B6801D5196002E06806FBD519800F
:10122000002316462361BCE7336800211A1D326093
:101230001E686268304600F0D3F808B1801B606019
:1012400063682361002384F84330AAE732464946A5
:1012500040462369D0470130ADD023689B0713D4A3
:10126000E068039B9842B8BF1846A6E701233246C0
:1012700049464046D04701309DD00135E368039987
:101280005B1AAB42F2DCEBE7002504F11906F5E747
:101290003C1500084D150008F8B50E4614460546E5
:1012A00018B1036A0BB9FFF727FBA369A360A389F1
:1012B0001A0701D5236943B92146284600F02AF8C8
:1012C00018B14FF0FF373846F8BD23682269F6B2EF
:1012D000981A63693746834205DC21462846FFF7A2
:1012E00043FA0028EDD1A368013BA36023685A1C90
:1012F00022601E706269431C9A4204D0A389DB07F6
:10130000E1D50A2EDFD121462846FFF72DFA002825
:10131000D9D0D6E738B5294B054618680C4618B120
:10132000036A0BB9FFF7E8FAB4F90C30190722D4B5
:10133000DA0607D409222A6043F040034FF0FF3059
:10134000A38133E0580712D5616B41B104F1440326
:10135000994202D02846FFF7D7FB00236363A38995
:1013600023F02403A3810023636023692360A389FE
:1013700043F00803A38123694BB9A38903F42073C5
:10138000B3F5007F03D02146284600F05CF8B4F99D
:101390000C3013F001020AD00022A26062695242AE
:1013A000A261226942B913F08000C5D138BD990706
:1013B00058BF6269A260F4E70020F7E72800002028
:1013C00038B50023054D044608462B60FFF7ECF8BE
:1013D000431C02D12B6803B1236038BDD401002027
:1013E000034610B5C9B202449342184601D1002009
:1013F00003E0047801338C42F6D110BD70B50C4681
:10140000B1F90E10154600291E4696B00CDAA389D4
:10141000002113F0800F14BF40234FF4806300209D
:1014200031602B6016B070BD6A4600F049F80028A4
:10143000EDDB019901F47041A1F500535942594186
:101440004FF48063EBE78B89F7B59D0706460C46A2
:1014500007D504F14703236023610123636103B0CF
:10146000F0BD6A4601ABFFF7C9FF009F054639464C
:101470003046FFF7B3FB48B9B4F90C309A05EED407
:1014800023F0030343F00203A381E2E7A389C4E945
:10149000040743F08003A381019B20605BB13046C9
:1014A000B4F90E1000F01EF828B1A38923F003034D
:1014B00043F00103A381A3891D43A581CFE7000069
:1014C00038B50023064D0446084611462B60FFF749
:1014D00045F8431C02D12B6803B1236038BD00BF1F
:1014E000D401002038B50023054D044608462B6082
:1014F000FFF743F8431C02D12B6803B1236038BDCA
:10150000D4010020F8B500BFF8BC08BC9E46704767
:0C151000F8B500BFF8BC08BC9E46704750
:10151C004144432056616C203A2025750D0A002366
:10152C002D302B2000686C4C0065666745464700E3
:10153C0030313233343536373839414243444546FD
:10154C000030313233343536373839616263646593
:04155C006600000025
:041560005501000829
:041564003101000849
:10156800181002401C1002400008014000440040CE
:1015780004440040084400400C44004000000000BF
:1015880003000000980000202C000020000000004C
:1015980098000020000100206801002000000000E1
:1015A8000000000000000000000000000000000033
:1015B8000000000000000000000000000000000023
:1015C8000000000000000000000000000000000013
:0815D80000000000000000000B
:0400000508000615D4
:00000001FF
