:020000040800F2
:1000000000000220E9030008390400083904000850
:100010003904000839040008390400080000000011
:10002000000000000000000000000000390400088B
:1000300039040008000000003904000839040008F1
:10004000390400083904000839040008390400089C
:1000500000000000390400083904000839040008D1
:10006000390400083904000839040008390400087C
:10007000390400083904000839040008390400086C
:10008000390400083904000839040008390400085C
:10009000390400083904000839040008390400084C
:1000A000390400083904000839040008390400083C
:1000B000D502000839040008390400083904000892
:1000C000390400083904000839040008390400081C
:1000D000390400083904000839040008390400080C
:1000E00039040008390400083904000839040008FC
:1000F00039040008390400083904000839040008EC
:1001000039040008390400083904000839040008DB
:1001100039040008390400083904000839040008CB
:1001200039040008390400083904000839040008BB
:1001300039040008390400083904000839040008AB
:10014000390400083904000839040008390400089B
:10015000390400083904000839040008390400088B
:10016000390400083904000839040008390400087B
:10017000390400083904000839040008390400086B
:080180003904000839040008ED
:1001880010B5054C237833B9044B13B10448AFF3C9
:1001980000800123237010BD000000200000000033
:1001A8008404000808B5034B1BB103490348AFF3A7
:1001B800008008BD0000000004000020840400083E
:1001C80080B483B000AF0346FB7197F90730002B6A
:1001D8000BDBFB7903F01F02074997F907305B092E
:1001E800012000FA02F241F8232000BF0C37BD4677
:1001F8005DF8047B704700BF00E100E080B400AF09
:100208000B4B1B6B0A4A43F002031363094B1B6831
:10021800084A23F030031360064B1B68054A43F075
:100228001003136000BFBD465DF8047B704700BF34
:10023800003802400004024080B500AF1D4B1B6C23
:100248001C4A43F0010313644FF080431B684FF0CE
:10025800804223F0010313604FF0804342F2CF0243
:100268009A624FF080430922DA624FF080435B695B
:100278004FF0804243F0010353614FF08043002266
:100288001A614FF08043DB684FF0804243F001036E
:10029800D3601C20FFF794FF4FF0804300225A627E
:1002A8004FF080431B684FF0804243F00103136016
:1002B80000BF80BD0038024080B500AF00F024F8D0
:1002C800FFF7BAFFFFF79AFF00BFFDE780B400AF62
:1002D8004FF080431B6903F00103002B0DD04FF052
:1002E80080431B694FF0804223F001031361054BE3
:1002F8005B69044A83F00403536100BFBD465DF89F
:10030800047B70470004024080B400AF304B1B6C84
:100318002F4A43F0805313642E4B1B682D4A43F435
:10032800804313602A4B1B68294A43F480331360C7
:1003380000BF274B1B6803F40033002BF9D0264B72
:1003480040F205721A60224B9B68214A23F0F003A1
:1003580093601F4B9B681E4A23F4E05393601C4B29
:100368009B681B4A23F460439360194B184A9B68A7
:100378009360174B9B68164A43F4A0539360144B41
:100388009B68134A43F400439360114B134A5A6025
:100398000F4B1B680E4A43F08073136000BF0C4B71
:1003A8001B6803F00073002BF9D0094B9B68084ABF
:1003B80043F00203936000BF054B9B6803F00C03F6
:1003C800082BF9D100BF00BFBD465DF8047B70471C
:1003D8000038024000700040003C024008544004CD
:1003E8000D488546AFF300800C480D490D4A00239F
:1003F80002E0D458C4500433C4188C42F9D30A4AD2
:100408000A4C002301E013600432A242FBD300F03F
:1004180011F8FFF751FFFEE700000220000000205E
:1004280000000020A4040008000000201C00002098
:10043800FEE7000070B50D4D0D4C641BA41000269E
:10044800A64209D10B4D0C4C00F018F8641BA410FF
:100458000026A64205D170BD55F8043B98470136E1
:10046800EEE755F8043B98470136F2E79C0400088C
:100478009C0400089C040008A0040008F8B500BF0C
:10048800F8BC08BC9E467047F8B500BFF8BC08BC6D
:040498009E467047C5
:04049C00AD010008A6
:0404A00089010008C6
:04000005080003E903
:00000001FF
