:020000040800F2
:10000000005000208D030008DD030008DD03000818
:10001000DD030008DD030008DD0300080000000028
:10002000000000000000000000000000DD030008E8
:10003000DD03000800000000DD030008DD03000808
:10004000DD030008DD030008DD030008DD03000810
:10005000DD030008DD03000851020008DD0300088D
:10006000DD030008DD030008DD030008DD030008F0
:10007000DD030008DD030008DD030008DD030008E0
:10008000DD030008DD030008DD030008DD030008D0
:10009000DD030008DD030008DD030008DD030008C0
:1000A000DD030008DD030008DD030008DD030008B0
:1000B000DD030008DD030008DD030008DD030008A0
:1000C000DD030008DD030008DD030008DD03000890
:1000D000DD030008DD030008DD030008DD03000880
:1000E000DD030008DD03000800000000DD03000858
:1000F000DD030008DD030008DD030008DD03000860
:10010000DD030008DD030008DD030008DD0300084F
:10011000DD030008DD030008DD030008DD0300083F
:10012000DD030008DD030008DD030008DD0300082F
:1001300010B5054C237833B9044B13B10448AFF321
:1001400000800123237010BD00000020000000008B
:100150002804000808B5034B1BB103490348AFF35B
:10016000008008BD000000000400002028040008F2
:1001700080B483B000AF0346FB7197F90730002BC2
:100180000BDBFB7903F01F02064997F907305B0987
:10019000012000FA02F241F8232000BF0C37BD46CF
:1001A00080BC704700E100E080B500AF234B9B6945
:1001B000224A43F004039361204B9B691F4A43F09A
:1001C000100393611D4B9B691C4A43F0010393612B
:1001D0001B4B1B681A4A23F00F031360184B1B6854
:1001E000174A43F008031360154BDB68144A43F0C9
:1001F0000103D360134B5B68124A23F4700353600E
:10020000104B5B680F4A43F4401353600E4B0022BF
:100210001A600D4B00229A600C4BDB680B4A43F0CE
:100220000103D360094B1B68084A43F001031360C4
:100230000620FFF79DFF00BF80BD00BF00100240F9
:10024000000801400010014000000140000401408E
:1002500080B400AF094B5B6903F00103002B08D0A9
:10026000064B01225A61064BDB68054A83F40053B2
:10027000D36000BFBD4680BC704700BF0004014092
:100280000010014080B500AF00F004F8FFF78CFFCC
:1002900000BFFDE780B400AF3A4B1B68394A43F416
:1002A0008033136000BF374B1B6803F40033002B0F
:1002B000F9D0354B1B68344A23F007031360324BE7
:1002C0001B68314A43F0020313602F4B1B682E4A10
:1002D00043F01003136000BF2B4B1B6803F0200397
:1002E000002BF9D0274B5B68264A23F0F0035360BC
:1002F000244B5B68234A23F4E0635360214B5B6823
:10030000204A43F4806353601E4B5B681D4A23F40C
:10031000605353601B4B5B681A4A43F4803353604D
:10032000184B5B68174A23F470135360154B5B68D6
:10033000144A43F4E0135360124B1B68114A43F014
:100340008073136000BF0F4B1B6803F00073002B1A
:10035000F9D00C4B5B680B4A23F003035360094B45
:100360005B68084A43F00203536000BF054B5B68BB
:1003700003F00C03082BF9D100BF00BFBD4680BCC1
:10038000704700BF00100240002002400D48854623
:10039000AFF300800C480D490D4A002302E0D45809
:1003A000C4500433C4188C42F9D30A4A0A4C0023BF
:1003B00001E013600432A242FBD300F011F8FFF712
:1003C00061FFFEE700500020000000200000002038
:1003D00048040008000000201C000020FEE7000088
:1003E00070B500260C4D0D4C641BA410A64209D11B
:1003F00000F01AF800260A4D0A4C641BA410A6420D
:1004000005D170BD55F8043B98470136EEE755F825
:10041000043B98470136F2E7400400084004000816
:100420004004000844040008F8B500BFF8BC08BC4C
:100430009E467047F8B500BFF8BC08BC9E467047A2
:04044000550100085A
:04044400310100087A
:040000050800038D5F
:00000001FF
