:020000040800F2
:10000000000002204509000895090008950900082C
:1000100095090008950900089509000800000000EE
:10002000000000000000000000000000950900082A
:1000300095090008000000009509000895090008CE
:100040009509000895090008950900089509000818
:1000500000000000950900089509000895090008AE
:1000600095090008950900089509000895090008F8
:1000700095090008950900089509000895090008E8
:1000800095090008950900089509000895090008D8
:1000900095090008950900089509000895090008C8
:1000A00095090008950900089509000895090008B8
:1000B000D50700089509000895090008950900086A
:1000C0009509000895090008950900089509000898
:1000D0009509000895090008950900089509000888
:1000E0009509000895090008950900089509000878
:1000F0009509000895090008950900089509000868
:100100009509000895090008950900089509000857
:100110009509000895090008950900089509000847
:100120009509000895090008950900089509000837
:100130009509000895090008950900089509000827
:100140009509000895090008950900089509000817
:100150009509000895090008950900089509000807
:1001600095090008950900089509000895090008F7
:1001700095090008950900089509000895090008E7
:0801800095090008950900082B
:1001880010B5054C237833B9044B13B10448AFF3C9
:1001980000800123237010BD5C00002000000000D7
:1001A8001813000808B5034B1BB103490348AFF304
:1001B800008008BD0000000060000020181300083F
:1001C80080B400AF0D4B1B6C0C4A43F4003313642E
:1001D8000B4B41F217129A60094BDB68084A43F04F
:1001E8000803D360064BDB68054A43F40053D36029
:1001F80000BFBD465DF8047B704700BF0038024071
:100208000044004080B483B000AF786000BF084B62
:100218001B6803F08003002BF9D07B68044ADBB22B
:10022800536000BF0C37BD465DF8047B704700BFC4
:100238000044004080B582B000AF78607868FFF76E
:10024800E1FF7B6818460837BD4680BD80B400AF23
:10025800304B1B6C2F4A43F0805313642E4B1B68A2
:100268002D4A43F4804313602A4B1B68294A43F400
:100278008033136000BF274B1B6803F40033002B47
:10028800F9D0264B40F205721A60224B9B68214A2E
:1002980023F0F00393601F4B9B681E4A23F4E0533E
:1002A80093601C4B9B681B4A23F460439360194B73
:1002B800184A9B689360174B9B68164A43F4A053EF
:1002C8009360144B9B68134A43F400439360114BAB
:1002D800134A5A600F4B1B680E4A43F08073136031
:1002E80000BF0C4B1B6803F00073002BF9D0094BBF
:1002F8009B68084A43F00203936000BF054B9B6864
:1003080003F00C03082BF9D100BF00BFBD465DF810
:10031800047B70470038024000700040003C0240F7
:100328000854400480B485B000AF03460A46FB7108
:100338001346BB71154B1B78DBB201335A4203F0ED
:10034800070302F0070258BF5342FB73104B1B7898
:10035800DBB2FA7B9A4213D00C4B1B78DBB21946FE
:100368000C4AFB7902F81130084B1B78DBB2094ABA
:100378005B001344BA795A70044AFB7B137000E09F
:1003880000BF1437BD465DF8047B70479400002019
:10039800950000208400002080B483B000AF0023C3
:1003A800FB710EE0FB790E4A0121D154FB790D4A0D
:1003B8000121D154FB790C4A0021D154FB79013336
:1003C800FB71FB79022BEDD9084B00221A70084B00
:1003D80000221A7000BF0C37BD465DF8047B7047D9
:1003E800780000207C00002080000020940000207D
:1003F8009500002080B582B000AF0023FB7143E078
:10040800254B1B69FA79254931F812201340002B36
:1004180014BF01230023DBB2BB71FB79204AD35CF4
:10042800BA799A4225D1FB791E4AD35C072B07D8A3
:10043800FB791C4AD25C0132D1B21A4AD15420E06D
:10044800FB79194AD35CBA799A421AD0FB791649D2
:10045800BA79CA54BB79002B05D1FB79002118461B
:10046800FFF760FF0DE0FB7901211846FFF75AFFFF
:1004780007E0FB790B4A0021D154FB790849BA7986
:10048800CA54FB790133FB71FB79022BB8D900BF41
:1004980000BF0837BD4680BD00000240B413000805
:1004A80078000020800000207C00002080B483B009
:1004B80000AF7860134B1B78DAB2134B1B78DBB2B2
:1004C8009A4201D1002317E00F4B1B78DBB2796801
:1004D8000E4A5B0013441B880B800B4B1B78DBB266
:1004E80001335A4203F0070302F0070258BF534290
:1004F800DAB2054B1A70012318460C37BD465DF871
:10050800047B7047940000209500002084000020A0
:1005180080B400AF2C4B1B6B2B4A43F002031363D0
:100528002A4B1B68294A23F030031360274B1B68AA
:10053800264A43F010031360234B1B6B224A43F0F7
:1005480001031363224B1B68214A23F03003136015
:100558001F4B1B681E4A43F0200313601C4B1B6A89
:100568001B4A23F470631362194B1B6A184A43F43D
:10057800E0631362164B1B68154A23F4406313604B
:10058800134B1B68124A23F440531360104B1B682B
:100598000F4A23F4404313600D4BDB680C4A43F4C5
:1005A8008063D3600A4BDB68094A43F48053D36005
:1005B800074BDB68064A43F48043D36000BFBD465F
:1005C8005DF8047B704700BF003802400004024019
:1005D8000000024080B483B000AF0346FB7197F976
:1005E8000730002B0BDBFB7903F01F02074997F953
:1005F80007305B09012000FA02F241F8232000BF0E
:100608000C37BD465DF8047B704700BF00E100E091
:1006180080B483B000AF03463960FB7197F90730A7
:10062800002B0ADB3B68DAB20C4997F90730120154
:10063800D2B20B4483F800230AE03B68DAB20849D7
:10064800FB7903F00F03043B1201D2B20B441A7674
:1006580000BF0C37BD465DF8047B704700E100E041
:1006680000ED00E080B500AF154B1B6C144A43F059
:10067800010313644FF0804342F2CF029A624FF0B5
:1006880080430922DA624FF08043DB684FF08042F2
:1006980043F00103D36000211C20FFF7B9FF1C20A1
:1006A800FFF798FF4FF0804300225A624FF08043D3
:1006B8001B684FF0804243F00103136000BF80BD08
:1006C8000038024080B582B000AFFFF7BFFDFFF7EA
:1006D8001FFFFFF775FDFFF7C5FFFFF75DFE3B1D29
:1006E8001846FFF7E3FE0346002BF8D07B79002B72
:1006F8002CD13B79032B29D801A252F823F000BF53
:10070800190700082D0700084107000855070008C9
:10071800274800F015FB274B1B689B68184600F01C
:10072800E3F913E0244800F00BFB224B1B689B689D
:10073800184600F0D9F909E0204800F001FB1D4BEC
:100748001B689B68184600F0CFF900BF7B79012B26
:10075800C5D13B79032BC2D801A252F823F000BFC0
:10076800790700088D070008A1070008E7060008B8
:10077800134800F0E5FA0F4B1B689B68184600F019
:10078800B3F914E00F4800F0DBFA0A4B1B689B68CA
:10079800184600F0A9F90AE00B4800F0D1FA054B19
:1007A8001B689B68184600F09FF900BF97E796E71B
:1007B800301300080C000020481300085C130008E0
:1007C80070130008881300089C13000880B500AF58
:1007D8004FF080431B6903F00103002B09D04FF051
:1007E80080431B694FF0804223F001031361FFF738
:1007F80001FE00BF80BD80B586B000AFF860B9606B
:100808007A6000237B610AE0AFF300800146BB6891
:100818005A1CBA60CAB21A707B6901337B617A6963
:100828007B689A42F0DB7B6818461837BD4680BD66
:1008380080B586B000AFF860B9607A6000237B614C
:1008480009E0BB685A1CBA601B781846FFF7F2FC2F
:100858007B6901337B617A697B689A42F1DB7B684B
:1008680018461837BD4680BD80B483B000AF7860A5
:100878004FF0FF3318460C37BD465DF8047B7047D0
:1008880080B483B000AF786039603B684FF40052A1
:100898005A60002318460C37BD465DF8047B704744
:1008A80080B483B000AF7860012318460C37BD468A
:1008B8005DF8047B704780B485B000AFF860B9601C
:1008C8007A60002318461437BD465DF8047B7047EC
:1008D80080B586B000AF7860144A154BD31A7B6197
:1008E8007B693B61134B1B68002B02D1114B124AE9
:1008F8001A60104B1A687B6813443A699A4207D207
:1009080000F04CFB03460C221A604FF0FF3309E05D
:10091800084B1B68FB60074B1A687B681344054A41
:100928001360FB6818461837BD4680BD00000220DA
:100938000004000098000020E80100200D488546CA
:10094800AFF300800C480D490D4A002302E0D4584B
:10095800C4500433C4188C42F9D30A4A0A4C002301
:1009680001E013600432A242FBD300F01DFBFFF745
:10097800A9FEFEE700000220000000205C00002025
:10098800C41300085C000020E8010020FEE7000016
:10099800B1F90C202DE9F041160705460C4654D450
:1009A8004B68002B02DC0B6C002B48DDE66A002E3E
:1009B80045D0002312F480522F68216A2B6030D072
:1009C800626DA389590705D56368D21A636B0BB1A9
:1009D800236CD21A0023E66A216A2846B047431CD2
:1009E800A38906D129681D292BD82A4A0A41D60786
:1009F80027D400226260D9042269226004D5421CEF
:100A080001D12B6803B96065616B2F60B9B104F13E
:100A18004403994202D0284600F0EEFA00236363AB
:100A28000DE001232846B0470246501CC9D12B6867
:100A3800002BC6D01D2B01D0162B1ED12F600020F5
:100A480022E043F040031BB21BE00F69002FF6D0F1
:100A580093070E6808BF4B690F6018BF0023A6EB09
:100A680007088B60B8F1000FE9DD216AA66A4346E2
:100A78003A462846B047002808DCB4F90C3043F061
:100A88004003A3814FF0FF30BDE8F0810744A8EB95
:100A98000008E7E7FEFFBFDF38B50B6905460C46DF
:100AA80013B90025284638BD18B1036A0BB900F000
:100AB800BBF8B4F90C30002BF3D0626ED00704D425
:100AC800990502D4A06D00F094FA28462146FFF754
:100AD8005FFF636EDA070546E4D4A3899B05E1D47A
:100AE800A06D00F087FADDE7014620B9044A054900
:100AF800054800F0B1B8054B1868FFF7CDBF00BF37
:100B080000000020A10A0008100000200C000020AE
:100B1800002310B50446C0E90033C0E904338360FC
:100B280081814366C2818361194608225C3000F0E6
:100B3800E7F90D4B63620D4BA3620D4BE3620D4B5E
:100B480023630D4B24629C4206D003F16802944251
:100B580002D0D0339C4205D104F15800BDE81040C2
:100B680000F046BA10BD00BF590D00087B0D000803
:100B7800B30D0008D70D00089C000020024A034965
:100B8800034800F069B800BF00000020A10A00086F
:100B98001000002041680C4B994210B5044601D062
:100BA800FFF77AFFA168094B994202D02046FFF768
:100BB80073FFE168064B994204D02046BDE8104017
:100BC800FFF76ABF10BD00BF9C0000200401002091
:100BD8006C01002010B50B4B0B4C0C4A1A602046D8
:100BE80000220421FFF794FF04F168000122092183
:100BF800FFF78EFF04F1D0000222BDE81040122159
:100C0800FFF786BFD40100209C000020850B000858
:100C1800014800F0EEB900BFDD010020014800F0F6
:100C2800E9B900BFDD01002010B50446FFF7F0FF69
:100C3800236A1BB1BDE81040FFF7F0BF044B2362E5
:100C4800044B1B68002BF5D1FFF7C4FFF2E700BF88
:100C58009D0B0008D40100202DE9F843074688467B
:100C680014460026D4E90195B9F1010905D524688F
:100C7800002CF7D13046BDE8F883AB89012B07D9A2
:100C8800B5F90E30013303D029463846C04706432C
:100C98006835E9E7036A70B5846805460E460BB9FE
:100CA800FFF7C2FF636EDB0705D4A389980502D45A
:100CB800A06D00F09EF9A389190702D52369002BBE
:100CC80035D12146284600F0C5F880B34FF0FF35EE
:100CD800636EDA0705D4A3899B0502D4A06D00F0E2
:100CE80089F9284670BD002B04DAA2699A4217DCFC
:100CF8000A2915D023685A1C22601970A36816F8AF
:100D0800011F013BA3600029EDD1002B11DA224617
:100D18000A21284600F05FF80130D7D00A25D7E726
:100D28002246284600F057F80130E7D1CEE7013EC9
:100D3800E4E723685A1C22600A221A70EEE70000D2
:100D4800024B01461868FFF7A5BF00BF0C00002042
:100D580010B50C46B1F90E1000F0FCF80028ABBF36
:100D6800636DA3891B1823F48053ACBF6365A3810B
:100D780010BD2DE9F0411F468B89DB0505460C4661
:100D8800164605D5B1F90E100223002200F0D0F85E
:100D9800A389B4F90E1023F48053A38132463B464D
:100DA8002846BDE8F04100F0E7B810B50C46B1F9A7
:100DB8000E1000F0BDF8431CA38915BF606523F42D
:100DC800805343F48053A38118BFA38110BDB1F9A8
:100DD8000E1000F09DB8F8B50E461446054618B139
:100DE800036A0BB9FFF720FFA369A360A3891A0759
:100DF80001D5236943B92146284600F02BF818B1DC
:100E08004FF0FF373846F8BD23682269981A63699E
:100E1800F6B28342374605DC21462846FFF73CFEFA
:100E28000028EDD1A368013BA36023685A1C226007
:100E38001E706269431C9A4204D0A389DB07E1D57E
:100E48000A2EDFD121462846FFF726FE0028D9D0F2
:100E5800D6E7000038B5294B054618680C4618B186
:100E6800036A0BB9FFF7E0FEB4F90C30190722D476
:100E7800DA0607D409222A6043F04003A3814FF021
:100E8800FF3033E0580712D5616B41B104F14403D8
:100E9800994202D0284600F0AFF800236363A38983
:100EA80023F02403A3810023636023692360A389BB
:100EB80043F00803A38123694BB9A38903F4207382
:100EC800B3F5007F03D02146284600F0B3F9B4F902
:100ED8000C3013F001020AD00022A260626952426B
:100EE800A261226942B913F08000C5D138BD9907C3
:100EF80058BF6269A260F4E70020F7E70C00002001
:100F080002440346934200D1704703F8011BF9E7F6
:100F180038B5064D0023044608462B60FFF7A4FCAD
:100F2800431C02D12B6803B1236038BDD8010020CF
:100F380038B5074D04460846114600222A601A466D
:100F4800FFF7B9FC431C02D12B6803B1236038BDFD
:100F5800D801002038B5074D04460846114600223E
:100F68002A601A46FFF747FC431C02D12B6803B1DD
:100F7800236038BDD801002038B5074D044608461F
:100F8800114600222A601A46FFF752FC431C02D180
:100F98002B6803B1236038BDD8010020014B1868C5
:100FA800704700BF0C00002070B50D4D0D4C641B40
:100FB800A4100026A64209D10B4D0C4C00F0A8F94C
:100FC800641BA4100026A64205D170BD55F8043B49
:100FD80098470136EEE755F8043B98470136F2E7A3
:100FE800BC130008BC130008BC130008C013000899
:100FF800704770477047000038B50546002941D052
:1010080051F8043C0C1F002BB8BFE41800F0E0F8BE
:101018001D4A136833B9636014602846BDE8384038
:1010280000F0DCB8A34208D9206821188B4201BF20
:1010380019685B6809182160EDE71A465B680BB10F
:10104800A342FAD911685018A0420BD12068014474
:10105800501883421160E0D118685B6853600844F7
:101068001060DAE702D90C232B60D6E72068211834
:101078008B4204BF19685B68636004BF091821606C
:101088005460CAE738BD00BFE401002070B50F4EB8
:101098000C463168054611B900F02AF9306021463E
:1010A800284600F025F9431C03D14FF0FF342046B1
:1010B80070BDC41C24F00304A042F8D0211A2846AD
:1010C80000F016F90130F2D1EFE700BFE00100208F
:1010D8002DE9F843CD1C25F0030508350C2D38BF44
:1010E8000C25002D064601DBA94204D90C233360E8
:1010F8000020BDE8F883DFF8D48000F069F8D8F85C
:1011080000301C4644BB29463046FFF7BFFF431C4E
:10111800044658D1D8F800402746002F43D1002C68
:101128004BD023683946304604EB030900F0E0F859
:10113800814542D121686D1A29463046FFF7A6FF3E
:1011480001303AD023682B442360D8F800305A681D
:1011580062BBC8F800700FE02268521B20D40B2A2B
:1011680017D96119A342256018BF5960636808BF81
:10117800C8F8001062514B60304600F02FF804F1B7
:101188000B00231D20F00700C21A1CBF1B1AA35016
:10119800AFE76268A3420CBFC8F800205A60EBE7CB
:1011A80023466468AEE73C467F68B6E71A465B6844
:1011B800A342FBD100235360DEE70C2333603046A3
:1011C80000F00CF894E70560D6E700BFE4010020C2
:1011D8000148FFF70EBF00BFDC0100200148FFF700
:1011E80009BF00BFDC01002070B50C46B1F90E1034
:1011F800002996B015461E460DDAA38913F0800F14
:101208004FF0000114BF40234FF480630020316089
:101218002B6016B070BD6A4600F048F80028ECDB79
:10122800019901F47041A1F50053594259414FF415
:101238008063EBE78B89F7B59D0706460C4607D513
:1012480004F14703236023610123636103B0F0BD08
:1012580001AB6A46FFF7C8FF009F0546394630468E
:10126800FFF736FF48B9B4F90C309A05EED423F0ED
:10127800030343F00203A381E2E7A389206043F05C
:101288008003A381019BC4E904075BB1B4F90E1084
:10129800304600F01DF828B1A38923F0030343F07A
:1012A8000103A381A3891D43A581CFE738B5074D65
:1012B80000230446084611462B60FFF7E1FA431C59
:1012C80002D12B6803B1236038BD00BFD8010020CC
:1012D80038B5064D0023044608462B60FFF7E0FAB0
:1012E800431C02D12B6803B1236038BDD80100200C
:1012F80038B5064D0023044608462B60FFF7E8FA88
:10130800431C02D12B6803B1236038BDD8010020EB
:10131800F8B500BFF8BC08BC9E467047F8B500BFDA
:08132800F8BC08BC9E467047AA
:10133000456E636F646520427574746F6E207072C1
:1013400065737365640000004355452042757474ED
:101350006F6E20707265737365640000504C415964
:1013600020427574746F6E207072657373656400CB
:10137000456E636F646520427574746F6E205265AC
:101380006C65617365640000435545204275747453
:101390006F6E2052656C656173656400504C4159F5
:1013A00020427574746F6E2052656C65617365645C
:0C13B00000000000200040008000000051
:0413BC00AD01000877
:0413C0008901000897
:1013C40000000000030000009C000020100000202A
:1013D400000000009C000020040100206C0100209B
:1013E40000000000000000000000000000000000F9
:1013F40000000000000000000000000000000000E9
:1014040000000000000000000000000000000000D8
:0C141400000000000000000000000000CC
:0400000508000945A1
:00000001FF
